:100000000C942A000C943F000C943F000C943F0089
:100010000C943F000C943F000C943F000C943F0064
:100020000C943F000C943F000C943F000C943F0054
:100030000C943F000C943F000C943F000C943F0044
:100040000C943F000C943F000C943F000C943F0034
:100050000C943F0011241FBECFE5D8E0DEBFCDBF1A
:1000600010E0A0E6B0E0E8EAF8E002C005900D92EA
:10007000AE38B107D9F70E94AF000C9452040C942B
:10008000000090E895BB82BB81EE94E00197F1F708
:1000900000C0000015BA089590EA95BB82BB81EEBE
:1000A00094E00197F1F700C0000080E285BB08955D
:1000B0008FEF84BB81BB88E30E9441008EE00E94E9
:1000C000410086E00E94410081E00E94410080E8FA
:1000D0000E944100089581E00E9441000895CF935D
:1000E000DF93EA01813011F480E801C080EC862BB7
:1000F0000E9441008881882331F021960E944C00A3
:1001000089918823D9F7DF91CF91089586B18760CF
:1001100086B93E9A379A369A089597B1907F97B9E3
:1001200097B1892B87B9369A349BFECF24B135B16C
:10013000822F932F08950E948D0028E833E1829F3B
:10014000B001839F700D929F700D1124672F772748
:100150006695669580E090E00E9434010895CF9204
:10016000DF92EF92FF920F931F93DF93CF93CDB760
:10017000DEB72A970FB6F894DEBF0FBECDBF0E9440
:10018000580081E060E040E650E00E946F000E946D
:1001900086008E010F5F1F4F0F2EF0E7EF2EF0E06D
:1001A000FF2EF02D0F2EFDE7CF2EF0E0DF2EF02DED
:1001B0000E946B0080E00E949B002DB73EB7285044
:1001C00030400FB6F8943EBF0FBE2DBFEDB7FEB75F
:1001D0003196ADB7BEB712961C930E931197F3826A
:1001E000E28264837583868397830E9471012DB7B1
:1001F0003EB7285F3F4F0FB6F8943EBF0FBE2DBFEE
:1002000081E060E0A8010E946F0081E00E949B00F5
:10021000ADB7BEB718970FB6F894BEBF0FBEADBF4F
:10022000EDB7FEB7319612961C930E931197D382B9
:10023000C28264837583868397830E9471012DB780
:100240003EB7285F3F4F0FB6F8943EBF0FBE2DBF9D
:1002500082E060E0A8010E946F0089E698E10197C2
:10026000F1F700C00000A4CFE89409C097FB3EF46A
:1002700090958095709561957F4F8F4F9F4F9923F3
:10028000A9F0F92F96E9BB279395F6958795779571
:100290006795B795F111F8CFFAF4BB0F11F460FF31
:1002A0001BC06F5F7F4F8F4F9F4F16C0882311F089
:1002B00096E911C0772321F09EE8872F762F05C09D
:1002C000662371F096E8862F70E060E02AF09A9538
:1002D000660F771F881FDAF7880F9695879597F92D
:1002E0000895AEE0B0E0E7E7F1E00C9429040D8951
:1002F0001E8986E08C831A8309838FEF9FE79E8394
:100300008D839E01275E3F4FCE0101966F89788DC8
:10031000A9010E949401EF81F885E00FF11F10827E
:100320002E96E4E00C944504ACE0B0E0EAE9F1E09C
:100330000C941B046C011B018A01FC0117821682BC
:10034000838181FFD1C12E010894411C511CF6010B
:100350009381F10193FD859193FF81911F01882382
:1003600009F4BEC1853239F493FD859193FF8191E3
:100370001F01853229F490E0B6010E949103E7CF76
:10038000EE24FF2420E02032B0F48B3269F08C326E
:1003900028F4803251F0833271F40BC08D3239F081
:1003A000803349F421602CC02260246029C0286079
:1003B00027C0206125C027FD2CC0382F30533A308C
:1003C00098F426FF08C08E2D880FE82EEE0CEE0C58
:1003D000E80EE30E15C08F2D880FF82EFF0CFF0CD2
:1003E000F80EF30E20620CC08E3221F426FD78C187
:1003F000206406C08C3611F4206802C0883649F4A7
:10040000F10193FD859193FF81911F01882309F0EC
:10041000BACF982F9554933018F09052933028F417
:100420000C5F1F4FFFE3F9830DC0833631F0833734
:1004300071F0833509F060C022C0F80180818983A2
:100440000E5F1F4F420171E0A72EB12C16C062E073
:10045000662E712C600E711EF8018080918026FF3F
:1004600003C06E2D70E002C06FEF7FEFC4012C87D8
:100470000E9486035C0183012C852F7717C052E010
:10048000652E712C600E711EF8018080918026FF10
:1004900003C06E2D70E002C06FEF7FEFC4012C87A8
:1004A0000E947B035C012C852068830123FD20C012
:1004B00008C080E290E0B6012C870E949103FA9474
:1004C0002C858F2D90E0A816B90698F311C0F40181
:1004D00027FD859127FF81914F0190E0B6012C8780
:1004E0000E9491032C85F110FA940894A108B10898
:1004F000A114B10461F7F1C0843611F0893649F5D1
:1005000027FF08C0F80160817181828193810C5FAF
:100510001F4F09C0F80160817181882777FD8095A0
:10052000982F0E5F1F4F4FE6B42EB22297FF09C0DF
:1005300090958095709561957F4F8F4F9F4FF0E814
:10054000BF2AA2012AE030E00E94BD03782E741871
:1005500045C0853731F43FEEB32EB2222AE030E0B9
:1005600025C099EFB92EB2228F36C1F0803720F422
:10057000883509F0B5C00DC0803721F0883709F003
:10058000AFC002C020E1B22AB4FE0BC084E0B82A9A
:1005900008C0B4FE09C0E6E0BE2A06C028E030E08C
:1005A00005C020E130E002C020E132E0B7FE08C023
:1005B000F80160817181828193810C5F1F4F07C0B8
:1005C000F8016081718180E090E00E5F1F4FA20111
:1005D0000E94BD03782E7418FFE7BF22B6FE0BC041
:1005E0002EEFB2227E1438F4B4FE07C0B2FC05C070
:1005F0008FEEB82202C0A72C01C0AE2C8B2D90E04C
:10060000B4FE0DC0FE01E70DF11D2081203319F469
:10061000E9EEBE2209C0A394B2FE06C004C08678EB
:100620009070009709F0A3948B2C9924B3FC14C00C
:10063000B0FE0FC0AF1428F4E72CEF0CEA18AF2C73
:1006400008C0E72C06C080E290E0B6010E9491034A
:10065000A394AF14C0F304C0AF1410F4FA1801C08F
:10066000FF2484FE0FC080E390E0B6010E94910356
:1006700082FE1FC081FE03C088E590E010C088E7BD
:1006800090E00DC0C40186789070009791F081FCD5
:1006900002C080E201C08BE2B7FC8DE290E0B601BF
:1006A0000E94910306C080E390E0B6010E9491038E
:1006B000EA947E14C0F37A94F201E70DF11D808173
:1006C00090E0B6010E9491037720A9F706C080E26E
:1006D00090E0B6010E949103FA94FF20C1F737CE53
:1006E000F6012681378102C02FEF3FEFC9012C961A
:1006F000E2E10C943704FC01059061507040011058
:10070000D8F7809590958E0F9F1F0895FC0161503A
:10071000704001900110D8F7809590958E0F9F1F23
:1007200008950F931F93CF93DF938C01EB018B817F
:1007300081FF1BC082FF0DC02E813F818C819D8176
:100740002817390764F4E881F9810193F983E88374
:1007500006C0E885F985802F0995009731F48E81D0
:100760009F8101969F838E8302C00FEF1FEFC80108
:10077000DF91CF911F910F910895FA01AA27283098
:1007800051F1203181F1E8946F936E7F6E5F7F4F5E
:100790008F4F9F4FAF4FB1E03ED0B4E03CD0670FDA
:1007A000781F891F9A1FA11D680F791F8A1F911D2D
:1007B000A11D6A0F711D811D911DA11D20D009F47D
:1007C00068943F912AE0269F11243019305D3193BF
:1007D000DEF6CF010895462F4770405D4193B3E0A8
:1007E0000FD0C9F7F6CF462F4F70405D4A3318F04F
:1007F000495D31FD4052419302D0A9F7EACFB4E000
:10080000A6959795879577956795BA95C9F70097B7
:100810006105710508959B01AC010A2E0694579558
:10082000479537952795BA95C9F7620F731F841FAF
:10083000951FA01D08952F923F924F925F926F9245
:100840007F928F929F92AF92BF92CF92DF92EF9260
:10085000FF920F931F93CF93DF93CDB7DEB7CA1BE1
:10086000DB0B0FB6F894DEBF0FBECDBF09942A880C
:10087000398848885F846E847D848C849B84AA84B4
:10088000B984C884DF80EE80FD800C811B81AA8141
:10089000B981CE0FD11D0FB6F894DEBF0FBECDBF0C
:0808A000ED010895F894FFCF6B
:1008A800494E495449414C495A494E472E2E2E002B
:1008B8004D4F4953545552453A2025660054454DED
:0E08C80050455241545552453A2025640000D7
:00000001FF
